:400000000080002011000000BD040000BD04000008B5044B1A6803F53F5302331A6000F06DFA00BFFA46004010B5054C237833B9044B13B10448AFF300800123237010BD8E
:400040009881FF1F0000000054170000084B10B51BB108490848AFF300800848036803B910BD074B002BFBD0BDE81040184700BF000000009C81FF1F54170000C880FF1F8C
:4000800000000000F8B507460E4600243FE000F0ABFC18B900F030FF00F064FD002000F099FE0546012000F095FEBDB157F824308BBB012000F07CFA4FF4FA7000F004FCC6
:4000C000002000F075FA4FF4FA7000F0FDFB0134642000F0F9FB00F02DFE18E0B8B157F82430012B19D1012000F06EFA4FF4FA7000F0EAFB002000F067FA4FF4FA7000F011
:40010000E3FB0134642000F0DFFB00F013FEB442BDDB0120F8BD0020F8BD0020F8BD00BF70B5E4B062B600F06FFB00F0B9FD002601250021084600F075FB324800F00AFB35
:4001400000F0F8FD002429E001F052FA2E4B184003D5013860F0010001304DF8240070B9012000F025FA4FF4FA7000F0ADFB002000F01EFA4FF4FA7000F0A6FB0DE0012051
:4001800000F022FA4FF4FA7000F09EFB002000F01BFA4FF4FA7000F097FB0134A542D3DC29466846FFF76EFF80B101360021084600F038FB154800F0CDFAB0B200F050FBB3
:4001C0004FF47A7000F080FB0135B2E70021084600F028FB0E4800F0BDFA0021012000F021FB0A4800F0B6FAB0B200F039FB41F2883000F069FB012000F0BAFA0026012503
:4002000097E700BF58170000010000806017000068170000FEE700BFF0B40022174611E050F82760F3B226F0FF0608E001EB420511F812406D78A5550132013BDBB2002BD8
:40024000F4D10137132FEBD9F0BC70470F4B1B78DBB203F007010E4A11701B090132137080220C4B1A70002203F243731A70202203F25B231A70092235331A7001225B3309
:400280001A704422A3F2E5231A707047CF0100496E5800402D51004008B50A46002101F09EF908BD38B50122244B1A80182202331A70022203F27E231A7008224FF04023F6
:4002C0001A70032103F5007319701D4B1B78DBB21C490B701C4B1A8041F25122023B1A80002419250CE0194B1B7803F0010343EA440404F003044FF4F07000F041FF013DB9
:400300000DB1032CEFD115B90320FFF783FF104B4FF480721A8007221A7000220D490A704820023108701A700222033B1A700A4A137843F00103137038BD00BF8040004002
:4003400008010049A146004022420040254200400440004006400040A243004008B501F033F908BD042807D8044B53F820201844017D13780B431370704700BF74170000CF
:40038000042808D8044B53F820201844017D137823EA0103137070477417000038B572B6334A137843F00403137000240BE0314863001A19510001440A46098CD069FFF77A
:4003C0006BFF0134E4B2082CF1D92B494FF09040FFF722FF4FF44072284B1A8040F20312283B1A80264A03F532430E331A60254A137843F0020313701032137843F0020398
:400400001370214C237843F040032370A2F58632513A137843F01003137008221B491C48FFF79CFF08221B491B48FFF797FF08221A491B48FFF792FF08221A491A48FFF79E
:400440008DFF1A4A137843F008031370184D61232B70FFF727FF81232B700122154B1A70FFF7F4FE0E2221461348FFF777FF38BDE84600407417000050000048725800407E
:400480000404048403500140A04300402003004812510040280300482251004030030048525100403803004862510040224300400048004004000840B043004008B501F093
:4004C00057F803680C2B00D1FEE7FEE708B5094B1A681044084BC31A802B02DC054B186005E001F045F80C2303604FF0FF32104608BD00BFCC80FF1F0882FF1F08B5104EEC
:40050000104D16E029686B68AC68002204E051F8040B43F8040B0432A242F8D1E868002203E0002143F8041B04328242F9D11035013E002EE6D101F021F8FFF7F1FDFEE795
:40054000010000004C18000008B5104A104B1A60104A136843F40073136000230AE0032B03D80D4A52F8231000E00C490C4A42F8231001332F2BF2D90A4B1A780A4B1A7037
:40058000074A0A4B1A60FFF709FF08BD0004FA050CED00E014ED00E000000000BD0400000080FF1FBC760040C080FF1F08ED00E0044A137803F0FB03800000F004001843FE
:4005C0001070704760510040044A137803F0F703C00000F008001843107070476051004010B50B4C237803F09F032370237803F0F00323702378184340F0100020700120F8
:4006000000F078F9237803F0EF03237010BD00BF2051004038B505460E4C237843F020032370237803F0BF032370002000F062F9237803F0F003237023781D4345F010054C
:400640002570012000F056F9237803F0EF03237038BD00BF2051004070B5354B1A7802F08002D2B21A7033490A7802F0F00242F00F020A7001310A7802F0F0020A70013171
:400680000A7802F0F0020A701A7802F0DF021A701A7842F040021A704FF4CA76002000F029F9234D2B7843F010032B70012000F021F9214B1C78E4B22B7803F0EF032B704E
:4006C000002000F017F904F00804E4B22B7843F010032B70012000F00DF92B7803F0EF032B7014B90A2000F005F9013E0CB1002ED4D10F4A137803F0BF031370137803F038
:400700008003DBB213700232137803F0F00313700132137803F0F00343F00F0313700132137803F0F00343F00F03137070BD00BF20510040225100402151004010B5044615
:40074000FFF78AFF2009FFF765FF04F00F00FFF761FF10BD38B505460078012404E0FFF7EDFF285D0134E4B20028F8D138BD00BF10B50446FFF770FF2009FFF731FF04F00A
:400780000F00FFF72DFF10BD08B5282000F09CF80320FFF725FF052000F096F80320FFF71FFF0F2000F090F80320FFF719FF012000F08AF80220FFF713FF052000F084F875
:4007C0000620FFF7D5FF0E20FFF7D2FF2C20FFF7CFFF0820FFF7CCFF0120FFF7C9FF0C20FFF7C6FF0320FFF7C3FF052000F06CF808BD00BF08B50C20FFF7BAFF0122014B76
:400800001A7008BDB481FF1F08B5054B5B7823B9FFF7BAFF0122024B5A70FFF7EBFF08BDB481FF1F08B5032819D8DFE800F002070D1381F08000FFF79BFF08BDA1F14000A8
:40084000C0B2FFF795FF08BDA1F16C00C0B2FFF78FFF08BDA1F12C00C0B2FFF789FF08BD10B584B000238DF80E30092211E0144BA3FB0013DB081C4603EB83035900431A11
:40088000DBB2303304A9114401F80C3C2046013AD2B20928EBD80A4BA3FB0013DB0803EB83035900431ADBB2303304A9114401F80C3C01AB9818FFF74DFF04B010BD00BFC8
:4008C000CDCCCCCC01BE704710B5044605E0084B186800F055FCA4F50044B4F5004FF6D8034B586800FB04F000F04AFC10BD00BFD080FF1F08B5034B1B7A00FB03F000F0FB
:400900003FFC08BDD080FF1F70B504460E46074B1D681F2802D90020FFF7D4FF04F01F04103455F8240045F8246070BD08ED00E038B504460D46072902D90020FFF7C2FFA9
:400940001F2C02D90020FFF7BDFF04F01F0000F1604000F564406D01EDB2057038BD00BF10B500F015FC0446134A137843F02003137000F0F5FB00F019FB00F06FFB0F4AA4
:40098000137843F010031370103A137843F01003137002F5A6520532137843F001031370204600F0F9FB0122054B1A60054A137843F08003137010BD9A640040BB43004047
:4009C00000E100E0796400400130C0B2022808D0C20800F0070101238B4002498A5C1342F2D07047E080FF1F024B187800F00100704700BFCB81FF1F10B50B4B195C1A18D6
:400A0000147903EB80039B6809221A700F2900D10721054A02EB81021269137823431370FFF7A0FC10BD00BFC817000070B505460B4B1C5C03441E79FFF7A2FC0F2C00D168
:400A40000724074800EB84042269137823EA0603137000EB8500836808221A7070BD00BFC817000010B5002404E02046FFF7DEFF0134E4B2012CF8D910BD00BF10B50E4A88
:400A8000137803F0FC0313700C4B1B781B020C4921F810306C3A12781343DB4321F81030FFF7C4FF002000F0F5FA064A137843F00103137010BD00BF796400401D640040CD
:400AC000C481FF1F70580040024B187040081033187070472864004070B50446084B034493F83050074E3318187900F0D3FA35442A7A054B1A70054B185DFFF7E5FF70BD5B
:400B0000C8170000E080FF1F5C640040C881FF1F38B50546FFF7E0FF084C237843F001032370074A137803F0FE0313702846FFF763FF237843F00203237038BD796400409A
:400B40007058004008B5054B00221A70044A107081221A70FFF7DCFF08BD00BFCB81FF1FCA81FF1F10B500220A4B1A700A4CFF2323702078FFF728FF20702378DBB2012B27
:400B800007D8044A137843F0010313702078FFF7BFFF10BDCB81FF1FCA81FF1F012805D1054A137803F0EF0313707047024A137843F01003137070477964004038B5FFF788
:400BC00051FF0220FFF7EAFF00F0E2FA2E4A137843F0030313700132137843F00303137000F0DAFA4FF43442284B1A804FF6FF7520331D80072440331C7000F0C9FA244A21
:400C0000137843F0030313700132137843F00303137000F0C1FAFF231E4A157020321370403A13702132137030321370103A1370012203F1E02381331A6017490020FFF721
:400C400063FE21460020FFF773FE00F085FA0220FFF788FB0320FFF785FB0420FFF782FB0E4A137843F00403137000F0D9F900F031FA002000F044FA042000F051FA0020A1
:400C800000F008FA38BD00BF9A6400402A6400409C6400402C640040250F00007964004008B5084B1B7823B9FFF788FF0122054B1A70FFF755FE00F069F90122024B9A7211
:400CC00008BD00BFB681FF1FE080FF1F10B40B4B1A5C0B4B33F810300A4921F810300021094C2154094C215409498C5C09498C54094A22F8103010BC704700BFF817000081
:400D0000C481FF1FD881FF1FD081FF1FD481FF1FEC80FF1FB881FF1FDC81FF1F10B50446FFF710FFFFF760FE0028FBD12046FFF7CDFF10BD10B5002404E02046FFF7EEFF34
:400D40000134E4B2012CF8D910BD00BFF0B5C40800F0070201239340DBB2194A125C194DAE183779317AAE5C174D2D5D2B420DD0DFF85CE01EF80000791A88421ADA25EA0D
:400D8000030511490D5511498E5413E0DFF840E01EF80000394488420ADD0C49895C012902D81D430848055501390848815401E006498E54044A105D184000D00120F0BD9B
:400DC000F8170000EC80FF1FE081FF1FB881FF1FD481FF1F70B5094B1C5C184405792544EDB200262046FFF7B1FF00B101260134E4B2A542F6D8304670BD00BFFC1700003F
:400E0000084400EB4100C0F38F0070472DE9F0410446314B1B5C314A13441E7B304D35F81010304B33F81000FFF7EAFF074625F81400204600F0A6F82B4B33F814209742D3
:400E400004D3BD1AADB24FF0010803E0D51BADB24FF00008B8F1000F10D1142D0ED9234B1B5D042B06D92046FFF730FF00221F4B1A551AE001331D4A135516E0B3B29D4232
:400E800004D9132D11D8B8F1000F0ED118490B5D43EA02231F44BF1AC7F30F22124B23F814200F550022114B1A55B6B2B5420DD9B8F1000F0AD0FF2D04D9FF220D4B1A558E
:400EC000BDE8F0810B4B1D55BDE8F0810022094B1A55BDE8F08100BFF8170000EC80FF1FDC81FF1FC481FF1FD881FF1FCC81FF1FD081FF1FD481FF1F10B500240DE0E20849
:400F000004F0070101238B4005498A5C134202D02046FFF77BFF0134E4B2012CEFD910BDE080FF1F10B5114B1878FFF7A7FD104B1B7813F0800F05D00D4A137803F0FE0314
:400F4000137010BD094C2078FFF73EFD20702378DBB2012B03D82078FFF7DAFD10BD044A137803F0FE03137010BD00BFCA81FF1FCB81FF1F08B5FFF7E5FD08BD08B5FFF756
:400F800033FD08BD08B500F0E5F908BD08B500F097FA08BD08B50220FFF700FE08BD00BF08B50120FFF7FAFD08BD00BF054A137843F0020313701032137843F00203137026
:400FC000704700BFA74300400F490B7803F0FC0200F0030313430B7001280AD10B4B1B78DBB20B4A13700B4B1B78DBB2013213707047094B1B78DBB2054A1370074B1B785E
:40100000DBB201321370704741580040110100493246004015010049AF010049B701004908B50020FFF7D0FF0B4B1A7842F020021A701A7802F0FB021A701A7842F0080230
:401040001A7003F28E231A7802F0E7021A701A7842F010021A7008BD41580040054A137843F0080313701032137843F008031370704700BFA8430040054B1A7802F0FD02AE
:401080001A701A7800F0020010431870704700BF2C580040014B1870704700BF835B0040094B1B7803F00C035B08084A127812F0040F00D0013303F1924393F83831DBB21A
:4010C000034A1370704700BF2C5800402D5800400B46004008B51422084B1A700133002018701A7842F004021A701A7842F002021A70FFF7C1FFFFF7D3FF08BD2C58004037
:4011000008B5064B1A7802F0FB021A701A7800F0040010431870FFF7C3FF08BD2D58004008B5064B1A7802F0F3021A701A7800F00C0010431870FFF7B3FF08BD2C58004048
:4011400010B5002404E02046FFF71AF90134E4B2042CF8D910BD00BF08B5FFF7F1FF08BD054A137843F0010313701032137843F001031370704700BFA243004000000000BD
:401180000230800803D000BF01380046FCD17047EFF3108072B6704780F31088704700BFF7B50193194B041C1B7883422CD9184B184F1B6808261954396800230B54164B81
:4011C00016491B6809681B5C8025CA54420000923968201C0B191A782A431A70FFF7CAFEFFF7CCFE0028FBD10D4B009A1B6801999B5A8B4204D23A6813191A78AA431A7014
:40120000013E6D08002EE3D1F7BDC046FD80FF1F0C81FF1F1081FF1F2081FF1F2481FF1F0881FF1F70B5194DFF232B54184B0F221B68041C1E5C174BFFF7B2FF164A174B98
:4012400010881B5D311C584300F07EF980B2802804D92B5D40085B082B55F8E7104BC0B21855104B1049800818556200002353520E490F4853520F490968095DFF2444547C
:401280000D4843540D4909688B5270BDF081FF1F1081FF1F980D00000081FF1F24180000FC81FF1F0082FF1FE481FF1FF481FF1FEC81FF1F2081FF1FF881FF1F0481FF1FDE
:4012C0001E4BF7B51A681E4E43001E4C9A5A9F5B195BBD1AADB20191891A6940090429D5002D27D0019D1F53511B89B28DB22CB2002C01DA4D42ADB21349EDB20F5C7908E9
:401300008D4217DA114C215C8D4206DD104D00260131FF082E54C9190BE08D420AD00C4D2F5C092F02D801372F5403E000272F54013921540249CA52F7BDC0460881FF1FF8
:40134000E481FF1FF481FF1FFC81FF1F0082FF1FE881FF1F70B5264B051C1B681C5CFFF7AFFF244B595D244B48005A5DC0B2234B824204D9185D904205D91A5503E01E5D39
:40138000864200D9185548080918C8B29208011C904200D2111C1A4AC8B2165D864200D2115518490968085D17490968095D4118013989B28D421AD11449185D0D682855A1
:4013C0001348155D0668355500680E680019355D06786D08AE4200D3057009680D48095D006889080155FF2119550023135570BD2081FF1F0082FF1FFC81FF1FEC81FF1F2E
:40140000F881FF1F1881FF1F1C81FF1F1481FF1F2C81FF1F2881FF1FF7B50022224B1B7893423FD9214C2248267800230768B446191CDDB265450BD2FD5C954206D11D4DE6
:40144000EE5C351C8E4200D20D1CE9B20133F0E7194B1B68995424780068019400900023019CD8B2A0421AD2009CE05C904214D1124CE05C0F4D5D192F78B94206D90126A8
:401480007F003743B0402F7080B2F3E7FF25071CAF4301D0E55400E0E0540133E0E70132D2B2BBE7F7BDC046FC80FF1FFE80FF1F2081FF1FF081FF1F2481FF1FFC81FF1F51
:4014C00038B5FFF76DFD0024194B1A781D1CA2420AD9184B01221978D923201C93400134FFF75EFEE4B2EFE70023134A12789A420BD91249124A09681248C95C1268C908B4
:40150000415CD1540133DBB2EFE7FFF743FD00242B78A34208D90A4B201C1B68195D0134FFF780FEE4B2F3E7FFF776FF38BDC046FD80FF1F0281FF1FFE80FF1F1081FF1FFF
:401540000C81FF1F04180000002902D0B0FBF1F0704708B14FF0FF3000F008B80029F8D00246B0FBF1F000FB11217047704700BF014B1868704700BF9081FF1F0E4B70B581
:401580001E460E4C0025E41AA410A54204D056F8253098470135F8E700F046F9084B094C1E46E41AA4100025A54204D056F8253098470135F8E770BD34180000341800001B
:4015C000341800003C18000010B5431E0A44914204D011F8014B03F8014FF8E710BD03460244934202D003F8011BFAE770470000194B10B51C68A36BD3B9182000F032F866
:4016000043F20E33A06303804AF6CD33438041F2342383804EF26D63C3804DF6EC630381052343810B23838101220023C0E90423A16B0A4C0B6948695C43094A02FB0040CB
:40164000A3FB02230132034443F10003C1E9042323F0004010BD00BF9081FF1F2DF451582D7F954C024B0146186800F003B800BF9081FF1F70B5CD1C25F0030508350C2D72
:4016800038BF0C25002D064601DBA94202D90C23336046E000F05CF8234B1C681A462146A1B10B685B1B0ED40B2B03D90B60CC18CD501EE08C420BBF63684B68136063601D
:4016C00018BF0C4615E00C464968E9E7174C23681BB9304600F02CF820602946304600F027F8431C18D0C41C24F00304A0420DD12560304600F02DF804F10B00231D20F0D7
:401700000700C31A0ED05A42E25070BD211A304600F00EF80130EBD10C233360304600F018F8002070BD00BFC081FF1FBC81FF1F38B5064C0023054608462360FEF7C6FE23
:40174000431C02D1236803B12B6038BD0482FF1F7047704700000000506C61796572310053636F72653A000047616D65204F7665722100005C5100405C5100402C510040A4
:40178000CB5A00409B5A00402040800110000000005100401000305100402000C05100401000F0510040100000000140001000140140000800400140000A004C0140000262
:4017C000005001402000000005050000204000002D5000402E500040065200400E520040165200401E520040265200402E520040365200407E520040000100000001000071
:4018000001010000010101010101020202020203030303030304040404040405050505050506060602024300F8B500BFF8BC08BC9E4670474D00000049050000F8B500BF6F
:40184000F8BC08BC9E4670472900000060180000C880FF1FD00000007000000000000000000000000882FF1F0000E02EC05D00001800000000366E0103000000C8C80000EB
:401880000303010001010000646400000A0A00001414000002020200F2290500D881FF1FC481FF1FC881FF1FE480FF1FF080FF1FFC17000000180000F8170000E880FF1FE4
:4018C000F480FF1FF880FF1F000000000000000000000000000000000000000000000000000000000000000026180000000000000000000000000000000000000000000082
:40190000000000000000000000000000000000000000000000000000000000000000000000000000000000003081FF1F0000000000000000000000000000000000000000D8
:401940000000000000000000000000000000000000000000000000000000000000000000000000000000000000000000000000000000000000000000000000000000000067
:401980000000000000000000000000000000000000000000000000000000000000000000000000000000000000000000000000000000000000000000000000000000000027
:4019C00000000000000000000000000000000000000000000000000000000000000000000000000000000000000000000000000000000000000000000000000000000000E7
:401A000000000000000000000000000000000000000000000000000000000000000000000000000000000000000000000000000000000000000000000000000000000000A6
:020000040003F7
:0200000480007A
:40000000015200400864004001030140010701403208014026090140450A01402D0B01404D0C01402D0D0140024001400341014002430140034501400346014003470140BE
:40004000014801400349014003500140015101402E6008FF0CFF0DFF1CFF1DFF2CFF2DFF8A1FE208E6040A010C041C0426022C012E023003340438203E0140564540460266
:400080004750482649FF4AFF4BFF4C024D204F05511058045A045F016040614062806480668084038502870189028E0191039401960299019B029C029E01AA02B503B603E7
:4000C000D217D804D904DB04DF0100040140051006010A220F021008162218021A021D101E081F2122103211380439104FA2560157406808695472028301900494029544E7
:4001000096229A20A310A604A720C0C5C285C4A2CC05CE06D230030204010702093D0B020D260E010F191401153F193B1B041C012110230125082701291F2B202D043303E3
:400140003401353C4004410249FF4AFF4BFF4C024D0C4EF85602580459045A045B045E085F01624863A168F06AF06CF06EF09A01A701AC01B001B101B601C001C106C6A0E4
:40018000C9FFCAFFCBFFCC03CD0CCEF4D804D904DA04DF01E248E3A1E8F0EAF0ECF0EEF00004014008040A220E08178018041B101C401D8020102228278029182A802B4008
:4001C0002F203004322038923904404445804F205620728073407B1090809504962297409918A340A628B640C005C245C480CA4FCC06CE0FD015D220DE0208190A040E1B4E
:4002000010111202180A1A013206341836013E544013410245024626480D58045A045F01610C62F0630C650C670C6840694C6A406B4C6C906D586F0C860189298C039202DF
:400240009403976098039B039E019F7BA152A401A602A803A978AB04AD7BB002B160B318B401B507BF15C042C103C506C702C811D608D804D904DA04DB0FDF01E10CE2F017
:40028000E30CE50CE70CE840E94CEA40EB4CEC90ED58EF0C010403020480051008010A260B400F881228188019101A841B021DA82054280229102B40302832403A204054BE
:4002C00045A848204D084F085008562057405A406002780184028608C0C5C25FC406CA0DCC0ECE04D077D608D808DE01E4023120CC108520A520E2108320E6201108871070
:40030000C4089320B504EE023B209320CE08A3207B20A320DE4000010C010E0100030000000B0B0000000000007F7F00000080000000600000000000000C0C000000000046
:40034000000000000000000000000000000000000000000000000000000000000000000000000000000000000000000000000000000000000000000000000000000000007D
:40038000000000000000000000000000000000000000000000000000000000000000000000000000000000000000000000000000000000000000000000000000000000003D
:4003C00000000000000000000000000000000000000000000000000000000000000000000000000000000000000000000000000000000000000000000000000000000000FD
:4004000000000000000000000000000000000000000000000000000000000000000000000000000000000000000000000000000000000000000000000000000000000000BC
:0200000490006A
:0400000000004005B7
:0200000490105A
:04000000BC90ACAF55
:0200000490303A
:020000001EA937
:0200000490402A
:4000000000000000000000000000000000000000000000000000000000000000000000000000000000000000000000000000000000000000000000000000000000000000C0
:400040000000000000000000000000000000000000000000000000000000000000000000000000000000000000000000000000000000000000000000000000000000000080
:400080000000000000000000000000000000000000000000000000000000000000000000000000000000000000000000000000000000000000000000000000000000000040
:4000C0000000000000000000000000000000000000000000000000000000000000000000000000000000000000000000000000000000000000000000000000000000000000
:0200000490501A
:0C00000000012E12306900012E1C4F126E
:00000001FF